:100000000C9471020C9499020C9499020C9499022C
:100010000C9499020C9499020C9499020C949902F4
:100020000C9499020C9499020C9499020C949902E4
:100030000C9499020C949B020C9499020C949902D2
:100040000C94D0090C9499020C9470080C94A1089B
:100050000C9499020C9499020C9499020C949902B4
:100060000C9499020C949902E10305040D042A04EE
:10007000460456048004B804D704FB040B050E059F
:100080002A06210529051B061B06330547055B05C6
:10009000740588059805BB05D205E9050606080024
:1000A0000600848084816400830B000100850200C7
:1000B00088826400830B0001008602008882810030
:1000C0000000000000000000000000000000000030
:1000D0000000000000000000000000000000000020
:1000E0000000000000000000000000000000000010
:1000F0000000000000000000000000000000000000
:1004800000000000000000000000240027002A00F7
:1004900000000000250028002B00000000002300C1
:1004A00026002900040404040404040402020202D5
:1004B0000202030303030303010204081020408027
:1004C00001020408102001020408102000000007A7
:1004D000000201000003040600000000000000000C
:1004E0005A0911241FBECFEFD8E0DEBFCDBF11E007
:1004F000A0E0B1E0E8E2F5E102C005900D92A03283
:10050000B107D9F713E0A0E2B1E001C01D92A93212
:10051000B107E1F714E0C2EED4E004C02297FE0177
:100520000E948E0AC03ED107C9F70E9497090C9419
:10053000530A0C9400001F920F920FB60F921124D1
:100540002F933F934F935F936F937F938F939F93DB
:10055000AF93BF93EF93FF93E0912401F0912501B6
:100560000995FF91EF91BF91AF919F918F917F91ED
:100570006F915F914F913F912F910F900FBE0F9010
:100580001F901895FC01A3E0440F551F661F771FAD
:10059000AA95D1F7403080E0580781E0680780E0F5
:1005A000780714F481E010C033E07595679557958E
:1005B00047953A95D1F7403080E0580781E06807C9
:1005C00080E078071CF482E0828339C023E07595CF
:1005D0006795579547952A95D1F7403080E05807A1
:1005E00081E0680780E0780714F483E0EDCF92E0C3
:1005F00075956795579547959A95D1F7403080E066
:10060000580781E0680780E0780714F484E0DCCFC5
:1006100082E075956795579547958A95D1F7403053
:1006200080E0580781E0680780E0780714F485E0EF
:10063000CBCF85E082834FEF5FEF60E070E08FB754
:100640008383F894518340835093870040938600BE
:1006500083818FBF80918100887F8093810080910A
:1006600081009281892B80938100089510928000EF
:1006700020E1209381000E94C2020895E1E8F0E0A9
:100680002081DC0112968C911297282B20830895EB
:100690000F931F93CF93DF93EC018B01BA01A90154
:1006A000141615061606170614F40E94C2021D83BE
:1006B0000C8381E080936F00CE010E943E03DF91A6
:1006C000CF911F910F9108958DE061E00E943F0747
:1006D0008DE060E00E94840789E061E00E943F07AE
:1006E0008CE061E00E943F078AE061E00E943F07E2
:1006F0008BE061E00E943F0780E090E0FC01EE0F9C
:10070000FF1FEE0FFF1FE80FF91FEA5DFE4F10827B
:10071000128211821482138201968F30910571F733
:1007200080E291E044E650E060E070E00E94360331
:1007300080E291E06AEA76E02FEF3FEFA9010E94A4
:10074000480384E690E0909308018093070110929B
:100750000C0110920B0181E093E040E855E260E06B
:1007600070E00E94DC080895EF92FF920F931F93B0
:10077000CF93DF93C0917102D09172020091730206
:10078000109174022091750230917602E090770208
:10079000F090780201C0EC01AE0142565F4FFA01C1
:1007A000849190E0805890408B31910508F043C2CD
:1007B0008C5C9F4FFC01EE0FFF1F0590F491E02D24
:1007C0000994D0937202C093710210937402009343
:1007D00073023093760220937502F0927802E092D1
:1007E00077021092040180E090E0FC01EE0FFF1F01
:1007F000EE0FFF1FE80FF91FEA5DFE4F1482138210
:1008000001968F30910589F735C201501040F801EB
:10081000EE0FFF1FEF58FE4F1AC0A8014150504085
:10082000FA01EE0FFF1FEF58FE4F80819181009774
:1008300031F4CE0101968A0101501040ACCF0197EE
:1008400091838083F801EE0FFF1FE359FE4F8081F3
:100850009181A1CF21503040F901EE0FFF1FEF50E1
:10086000FE4F40815181CE010196F801EE0FFF1F2E
:10087000EF58FE4F918380830F5F1F4FF801EE0FFB
:10088000FF1FEF58FE4F5183408370C1215030400D
:10089000F901EE0FFF1FEF50FE4F80819181F801AB
:1008A000EE0FFF1FEF58FE4F21965EC1D901119741
:1008B0009D0121503040FD01EE0FFF1FE151FE4F21
:1008C00080819181FC01EE0FFF1FEE0FFF1FE80FEB
:1008D000F91FEA5DFE4F43815481AA0FBB1FAF5041
:1008E000BE4F6D917C911197460F571F54834383E0
:1008F000438154814436510550F144E650E02CC008
:10090000D90111979D0121503040FD01EE0FFF1FCD
:10091000E151FE4F80819181FC01EE0FFF1FEE0F30
:10092000FF1FE80FF91FEA5DFE4F43815481AA0FB4
:10093000BB1FAF50BE4F6D917C911197461B570B5B
:1009400054834383438154814115510519F04381F8
:10095000548102C040E050E0FC01EE0FFF1FEE0F9B
:10096000FF1FE80FF91FEA5DFE4F548343834BC11D
:10097000F9013197D901AA0FBB1FA151BE4F8D912B
:100980009C9111979F0121503040EE0FFF1FE151C4
:10099000FE4F40815181FA01EE0FFF1FEE0FFF1F46
:1009A000E40FF51FEA5DFE4F948383832CC1A901F8
:1009B00041505040F901EE0FFF1FE151FE4F808181
:1009C0009181009721F4CE0101969A01E4CED09353
:1009D0007202C09371021093740200937302F0923A
:1009E0007802E092770201979183808330937602B8
:1009F000209375023FC1F901EE0FFF1FEF50FE4F2C
:100A0000D901AA0FBB1FA151BE4F8D919C91119787
:100A10009183808325C021503040F5C0D901AA0FB1
:100A2000BB1FA151BE4F8D919C911197F901EE0F03
:100A3000FF1FE351FE4F4081518111965C934E930D
:100A4000E0C0F901EE0FFF1FE151FE4FE080F180A1
:100A5000DAC0F901EE0FFF1FEF50FE4FF182E08286
:100A60002F5F3F4FD0C021503040F901EE0FFF1FE4
:100A7000E151FE4FD901AA0FBB1FAF50BE4F80817D
:100A800091814D915C911197840F951FBAC02150AF
:100A90003040F901EE0FFF1FE151FE4FD901AA0FBF
:100AA000BB1FAF50BE4F808191814D915C911197DA
:100AB000841B950BA6C021503040F901EE0FFF1F9B
:100AC000E151FE4FD901AA0FBB1FAF50BE4F60814D
:100AD00071814D915C911197649FC001659F900D4C
:100AE000749F900D11248DC021503040F901EE0FFC
:100AF000FF1FE151FE4FD901AA0FBB1FAF50BE4FE0
:100B0000808191816D917C9111970E94560A79C0E4
:100B100021503040F901EE0FFF1FE151FE4FD90186
:100B2000AA0FBB1FAF50BE4F8D919C91119769C00A
:100B3000F9013197D901AA0FBB1FA151BE4F8D9169
:100B40009C9111979F0121503040EE0FFF1FE15102
:100B5000FE4F4081518121964115510551F0F80118
:100B6000EE0FFF1FEF58FE4FD183C0830F5F1F4F63
:100B700012CECE0110CE21503040F901EE0FFF1FF2
:100B8000E151FE4FD901AA0FBB1FAF50BE4F81E00C
:100B900090E0408151816D917C91119764177507A8
:100BA00080F12DC021503040F901EE0FFF1FE151BF
:100BB000FE4FD901AA0FBB1FAF50BE4F81E090E09E
:100BC000408151816D917C91119746175707C8F06C
:100BD00016C021503040F901EE0FFF1FE151FE4FCA
:100BE000D901AA0FBB1FAF50BE4F81E090E04081FA
:100BF00051816D917C9111974617570711F080E054
:100C000090E091838083CE010196C5CDF901EE0F6E
:100C1000FF1FE151FE4F8081918123503040A80198
:100C2000440F551F21960F5F1F4F4F585E4FFA011B
:100C3000D183C083B0CDFA0185919491F901EE0F73
:100C4000FF1FEF50FE4F808391832F5F3F4FCE01F8
:100C50000296A1CDD0937202C093710210937402D8
:100C6000009373023093760220937502F09278021B
:100C7000E0927702DF91CF911F910F91FF90EF905B
:100C80000895809100018823A1F1109200018091C4
:100C90000201909103010196909303018093020158
:100CA00064E670E0709308016093070110920C01F4
:100CB00010920B0180910201909103010E94560A4B
:100CC000009789F48DE060910D010E948407809166
:100CD0000D0190910E0121E030E08227932790933F
:100CE0000E0180930D0180910401882311F00E9470
:100CF000B4030895CF93DF938BE060E00E948407F4
:100D000089E061E00E948407C0E0D0E08AE060E012
:100D10000E948407FE01EE0FFF1FEE0FFF1FEC0F76
:100D2000FD1FEA5DFE4F60818CE00E9484078AE02F
:100D300061E00E9484072196CF30D10539F789E020
:100D400060E00E9484078BE061E00E948407DF91ED
:100D5000CF910895809101018436C4F11092010170
:100D6000E0E0F1E081E08093000180910901909141
:100D70000A019487838780910501909106019087ED
:100D8000878380E090E041E0FC01EE0FFF1FEE0F53
:100D9000FF1FE80FF91FEA5DFE4F23813481211503
:100DA000310509F04083FC01EE0FFF1FEE0FFF1F1E
:100DB000E80FF91FEA5DFE4F2381348132832183DE
:100DC00001968F30910501F70E947A0620E030E00D
:100DD00080E090E0FC01EE0FFF1FEE0FFF1FE80F19
:100DE000F91FEA5DFE4F4081442369F060910101E3
:100DF00041815281772767FD7095641775071CF054
:100E0000108221E030E001968F30910519F721150D
:100E1000310511F00E947A06809101018F5F809365
:100E200001010895833071F0843028F48130A1F0FD
:100E3000823021F514C08630B1F08730D1F0843093
:100E4000E9F404C0809180008F7703C08091800016
:100E50008F7D80938000089584B58F7702C084B51C
:100E60008F7D84BD08958091B0008F778093B0000E
:100E700008958091B0008F7D8093B0000895EF9227
:100E8000FF92CF93DF9390E0FC01E854FB4F449135
:100E90008C559B4FFC018491882389F190E0880F49
:100EA000991FFC01EA57FB4F25913491D9018057D6
:100EB0009B4FFC0125913491E22EE7017E01F32E38
:100EC000E701662349F49FB7F8948C9140958423F9
:100ED0008C93888184230BC0623059F49FB7F894B7
:100EE0008C91242F209582238C938881842B888356
:100EF00005C09FB7F8948C91842B8C939FBFDF9192
:100F0000CF91FF90EF9008950F931F93DF93CF93AE
:100F10000F92CDB7DEB7282F30E0F901E453FB4F35
:100F20008491F901E854FB4F14912C553B4FF90182
:100F300004910023D9F0882321F069830E941207CD
:100F40006981E02FF0E0EE0FFF1FE057FB4F859126
:100F50009491DC019FB7F894662321F48C9110954D
:100F6000812302C08C91812B8C939FBF0F90CF91D6
:100F7000DF911F910F910895FC0184859585FC01F7
:100F8000E05CFF4F208131818E5B9F4FFC018081AF
:100F90009181281B390B2F733070C9010895FC0112
:100FA00084859585FC01E05CFF4F40815181FC0107
:100FB000EE5BFF4F208131814217530741F00190D2
:100FC000F081E02DE80FF91F208130E002C02FEF03
:100FD0003FEFC9010895FC0184859585FC01E05C23
:100FE000FF4F40815181FC01EE5BFF4F2081318139
:100FF0004217530771F0A081B181A80FB91F2C913E
:101000008081918101968F7390709183808330E00D
:1010100002C02FEF3FEFC9010895DC011E968D91AC
:101020009C911F97FC01E05CFF4F8E5B9F4F4081BE
:101030005181DC012D913C91119742175307B9F76B
:101040000895FC0126853785D901A05CBF4F8D919D
:101050009C9101968F739070D901AE5BBF4F4D91FB
:101060005C91119784179507D1F3D901A05CBF4F0C
:101070000D90BC91A02DA20FB31F6C93A685B785D0
:10108000A05CBF4F11969C938E93A689B7892C9133
:1010900081E090E0058C02C0880F991F0A94E2F766
:1010A000282B2C9381E090E00895FB01E05CFF4F3A
:1010B000208131812F5F3F4F2F733070DB01AE5B9A
:1010C000BF4F4D915C9111972417350739F0A081DE
:1010D000B181A60FB71F8C933183208308950895A3
:1010E0001F920F920FB60F9211242F933F934F939D
:1010F0005F936F937F938F939F93AF93BF93EF9380
:10110000FF938091C60069E772E00E945508FF9145
:10111000EF91BF91AF919F918F917F916F915F916F
:101120004F913F912F910F900FBE0F901F901895E8
:1011300081E093E00E94BC07009711F00E946F08C5
:1011400008951F920F920FB60F9211242F933F9381
:101150008F939F93EF93FF932091FD023091FE02B6
:101160008091FF02909100032817390731F4809194
:10117000C1008F7D8093C10014C0E091FF02F09107
:101180000003E354FD4F20818091FF029091000302
:1011900001968F739070909300038093FF022093C9
:1011A000C600FF91EF919F918F913F912F910F90EA
:1011B0000FBE0F901F901895DF92EF92FF920F9342
:1011C0001F93CF93DF93EC017A018B01DD24D3943D
:1011D000403081EE580780E0680780E0780749F4E6
:1011E000DD24EC89FD89108260E874E88EE190E0EE
:1011F0000FC0EC89FD8981E090E00E8C02C0880F61
:10120000991F0A94E2F7808360E079E08DE390E033
:10121000A80197010E946A0A215030404040504086
:10122000569547953795279580E12030380710F07F
:10123000DD20B1F6E889F9893083EA89FB892083CA
:10124000EE89FF89408181E090E09C010A8C02C018
:10125000220F331F0A94E2F7422B4083EE89FF8965
:1012600040819C010B8C02C0220F331F0A94E2F7CD
:10127000422B4083EE89FF8940819C010C8C02C087
:10128000220F331F0A94E2F7422B4083EE89FF8935
:1012900020810D8C02C0880F991F0A94E2F7809577
:1012A00082238083DF91CF911F910F91FF90EF9068
:1012B000DF900895109204031092030388EE93E0E8
:1012C000A0E0B0E08093050390930603A09307038A
:1012D000B0930803E3E0F3E083E191E0929382931B
:1012E00089E792E0958784878DEB92E097878687E0
:1012F00085EC90E0918B808B84EC90E0938B828BDB
:1013000080EC90E0958B848B81EC90E0978B868BC2
:1013100086EC90E0918F808F84E0828F83E0838FD2
:1013200087E0848F85E0858F81E0868F0895CF9355
:10133000DF930E94180A0E946403C8E9D8E00E9463
:1013400041062097E1F30E949808F9CFCF92DF92EF
:10135000EF92FF920F931F93CF93DF936C017B016A
:101360008A01C0E0D0E00FC0D7016D917D01D601A8
:10137000ED91FC910190F081E02DC6010995C80F17
:10138000D91F015010400115110571F7CE01DF91F1
:10139000CF911F910F91FF90EF90DF90CF90089524
:1013A0001F920F920FB60F9211242F933F938F939A
:1013B0009F93AF93BF938091240390912503A091B5
:1013C0002603B0912703309128030196A11DB11D7A
:1013D000232F2D5F2D3720F02D570196A11DB11D14
:1013E000209328038093240390932503A09326033E
:1013F000B09327038091200390912103A0912203B1
:10140000B09123030196A11DB11D809320039093F9
:101410002103A0932203B0932303BF91AF919F9127
:101420008F913F912F910F900FBE0F901F901895A5
:10143000789484B5826084BD84B5816084BD85B5AF
:10144000826085BD85B5816085BDEEE6F0E0808176
:1014500081608083E1E8F0E0108280818260808397
:10146000808181608083E0E8F0E08081816080831A
:10147000E1EBF0E0808184608083E0EBF0E080814C
:1014800081608083EAE7F0E08081846080838081EE
:101490008260808380818160808380818068808396
:1014A0001092C1000895F8940C94920AAA1BBB1BD9
:1014B00051E107C0AA1FBB1FA617B70710F0A61B54
:1014C000B70B881F991F5A95A9F780959095BC0175
:1014D000CD010895A1E21A2EAA1BBB1BFD010DC070
:1014E000AA1FBB1FEE1FFF1FA217B307E407F507D4
:1014F00020F0A21BB30BE40BF50B661F771F881FB0
:10150000991F1A9469F760957095809590959B0145
:10151000AC01BD01CF010895EE0FFF1F0590F491BE
:08152000E02D0994F894FFCFBF
:1015280000000000010000000000000000010000B1
:101538000000002108A609BC07EB07CF070D08002B
:00000001FF
